:020000040000fa
:080000000002040000000000f2
:020000040000fa
:040008000e030000e3
:020000040000fa
:04000c00500300009d
:020000040000fa
:04001000b003000039
:020000040000fa
:040014002e030000b7
:020000040000fa
:040018007003000071
:020000040000fa
:04001c00900300004d
:020000040000fa
:04002000d003000009
:020000040000fa
:04002400fc030000d9
:020000040000fa
:04002800fc030000d5
:020000040000fa
:04002c00fc030000d1
:020000040000fa
:04003000fc030000cd
:020000040000fa
:04003400fc030000c9
:020000040000fa
:04003800fc030000c5
:020000040000fa
:04003c00fc030000c1
:020000040000fa
:04004000fc030000bd
:020000040000fa
:04004400fc030000b9
:020000040000fa
:04004800fc030000b5
:020000040000fa
:04004c00fc030000b1
:020000040000fa
:04005000fc030000ad
:020000040000fa
:04005400fc030000a9
:020000040000fa
:04005800fc030000a5
:020000040000fa
:04005c00fc030000a1
:020000040000fa
:04006000fc0300009d
:020000040000fa
:04006400fc03000099
:020000040000fa
:04006800fc03000095
:020000040000fa
:04006c00fc03000091
:020000040000fa
:04007000fc0300008d
:020000040000fa
:04007400fc03000089
:020000040000fa
:04007800fc03000085
:020000040000fa
:04007c00fc03000081
:020000040000fa
:04008000fc0300007d
:020000040000fa
:04008400fc03000079
:020000040000fa
:04008800fc03000075
:020000040000fa
:04008c00fc03000071
:020000040000fa
:04009000fc0300006d
:020000040000fa
:04009400fc03000069
:020000040000fa
:04009800fc03000065
:020000040000fa
:04009c00fc03000061
:020000040000fa
:0400a000fc0300005d
:020000040000fa
:0400a400fc03000059
:020000040000fa
:0400a800fc03000055
:020000040000fa
:0400ac00fc03000051
:020000040000fa
:0400b000fc0300004d
:020000040000fa
:0400b400fc03000049
:020000040000fa
:0400b800fc03000045
:020000040000fa
:0400bc00fc03000041
:020000040000fa
:0400c000fc0300003d
:020000040000fa
:0400c400fc03000039
:020000040000fa
:0400c800fc03000035
:020000040000fa
:0400cc00fc03000031
:020000040000fa
:0400d000fc0300002d
:020000040000fa
:0400d400fc03000029
:020000040000fa
:0400d800fc03000025
:020000040000fa
:0400dc00fc03000021
:020000040000fa
:0400e000fc0300001d
:020000040000fa
:0400e400fc03000019
:020000040000fa
:0400e800fc03000015
:020000040000fa
:0400ec00fc03000011
:020000040000fa
:0400f000fc0300000d
:020000040000fa
:0400f400fc03000009
:020000040000fa
:0400f800fc03000005
:020000040000fa
:0400fc00fc03000001
:020000040000fa
:04010000fc030000fc
:020000040000fa
:04010400fc030000f8
:020000040000fa
:04010800fc030000f4
:020000040000fa
:04010c00fc030000f0
:020000040000fa
:04011000fc030000ec
:020000040000fa
:04011400fc030000e8
:020000040000fa
:04011800fc030000e4
:020000040000fa
:04011c00fc030000e0
:020000040000fa
:04012000fc030000dc
:020000040000fa
:04012400fc030000d8
:020000040000fa
:04012800fc030000d4
:020000040000fa
:04012c00fc030000d0
:020000040000fa
:04013000fc030000cc
:020000040000fa
:04013400fc030000c8
:020000040000fa
:04013800fc030000c4
:020000040000fa
:04013c00fc030000c0
:020000040000fa
:04014000fc030000bc
:020000040000fa
:04014400fc030000b8
:020000040000fa
:04014800fc030000b4
:020000040000fa
:04014c00fc030000b0
:020000040000fa
:04015000fc030000ac
:020000040000fa
:04015400fc030000a8
:020000040000fa
:04015800fc030000a4
:020000040000fa
:04015c00fc030000a0
:020000040000fa
:04016000fc0300009c
:020000040000fa
:04016400fc03000098
:020000040000fa
:04016800fc03000094
:020000040000fa
:04016c00fc03000090
:020000040000fa
:04017000fc0300008c
:020000040000fa
:04017400fc03000088
:020000040000fa
:04017800fc03000084
:020000040000fa
:04017c00fc03000080
:020000040000fa
:04018000fc0300007c
:020000040000fa
:04018400fc03000078
:020000040000fa
:04018800fc03000074
:020000040000fa
:04018c00fc03000070
:020000040000fa
:04019000fc0300006c
:020000040000fa
:04019400fc03000068
:020000040000fa
:04019800fc03000064
:020000040000fa
:04019c00fc03000060
:020000040000fa
:0401a000fc0300005c
:020000040000fa
:0401a400fc03000058
:020000040000fa
:0401a800fc03000054
:020000040000fa
:0401ac00fc03000050
:020000040000fa
:0401b000fc0300004c
:020000040000fa
:0401b400fc03000048
:020000040000fa
:0401b800fc03000044
:020000040000fa
:0401bc00fc03000040
:020000040000fa
:0401c000fc0300003c
:020000040000fa
:0401c400fc03000038
:020000040000fa
:0401c800fc03000034
:020000040000fa
:0401cc00fc03000030
:020000040000fa
:0401d000fc0300002c
:020000040000fa
:0401d400fc03000028
:020000040000fa
:0401d800fc03000024
:020000040000fa
:0401dc00fc03000020
:020000040000fa
:0401e000fc0300001c
:020000040000fa
:0401e400fc03000018
:020000040000fa
:0401e800fc03000014
:020000040000fa
:0401ec00fc03000010
:020000040000fa
:0401f000fc0300000c
:020000040000fa
:0401f400fc03000008
:020000040000fa
:0401f800fc03000004
:020000040000fa
:0401fc00fc03000000
:020000040000fa
:04020000fc030000fb
:020000040000fa
:04020400fc030000f7
:020000040000fa
:04020800fc030000f3
:020000040000fa
:04020c00fc030000ef
:020000040000fa
:04021000fc030000eb
:020000040000fa
:04021400fc030000e7
:020000040000fa
:04021800fc030000e3
:020000040000fa
:04021c00fc030000df
:020000040000fa
:04022000fc030000db
:020000040000fa
:04022400fc030000d7
:020000040000fa
:04022800fc030000d3
:020000040000fa
:04022c00fc030000cf
:020000040000fa
:04023000fc030000cb
:020000040000fa
:04023400fc030000c7
:020000040000fa
:04023800fc030000c3
:020000040000fa
:04023c00fc030000bf
:020000040000fa
:04024000fc030000bb
:020000040000fa
:04024400fc030000b7
:020000040000fa
:04024800fc030000b3
:020000040000fa
:04024c00fc030000af
:020000040000fa
:04025000fc030000ab
:020000040000fa
:04025400fc030000a7
:020000040000fa
:04025800fc030000a3
:020000040000fa
:04025c00fc0300009f
:020000040000fa
:04026000fc0300009b
:020000040000fa
:04026400fc03000097
:020000040000fa
:04026800fc03000093
:020000040000fa
:04026c00fc0300008f
:020000040000fa
:04027000fc0300008b
:020000040000fa
:04027400fc03000087
:020000040000fa
:04027800fc03000083
:020000040000fa
:04027c00fc0300007f
:020000040000fa
:04028000fc0300007b
:020000040000fa
:100400006f0f21000eff21000e0188000000000088
:10041000000020000000e000020032000001200087
:1004200020028800140007003c0107000000e000e3
:1004300003003a0040702100010020000200370054
:100440000000200001002000810f70000100320038
:100450000f000700000020000000e0000200320052
:1004600000000200000000009218020000000000de
:100470000040da000000fe00000120000000e00063
:1004800002003200002020009001880000000600d9
:10049000a1028800800478000000eb001f003700f4
:1004a000e284440054a0b4009905ba00e2844400f8
:1004b00054a0b4009906ba00e284440054a0b400e9
:1004c0000006eb00476fde00fd07b200ae018800ba
:1004d000636ce10003003a000ad801000000eb0061
:1004e0000e003700606ce10008003a00004deb00a0
:1004f0000a05e800020039003420ec000af0a000f0
:100500008b05e900f9ff3e00040037006168e10057
:10051000010032000086eb000b00070019c7ba008b
:100520000e04e0001905ba0003003a000a00e000da
:10053000dbff3a0000000600fe07b200ae028800b2
:100540008a047800f5ff37000cd0a300e20f4d00bd
:100550001c00390089027800354dba000a05e80010
:10056000020039003420ec000af0a0008b05e900fd
:100570000f003200254dba000a05e80002003900dc
:100580003420ec000af0a0008b05e90008003200de
:100590000c00e0000600320015cdba000a05e800a4
:1005a000020039003420ec000af0a0008b05e900bd
:1005b0008984e80054a0b4000b00e000e2ff3a0098
:1005c000000006009902ba00055d78008b05e9007d
:1005d000f7ff3200c82ade00055d78008b05e900d0
:1005e000f3ff32000c00e000f1ff320019ddba0029
:1005f000eeff3700000000000000000000000000d7
:1006000000000000000000000000000000000000ea
:100610000000000000000000000000003600f800ac
:10062000809fbe00829fbe00849fbe00869fbe004a
:100630000000fa00c028a9000000eb009c0b070096
:100640000080fa004f03be004f02be004f01be0003
:100650004f00be003600f900004006003600f800ea
:10066000809fbe00829fbe00849fbe00869fbe000a
:100670000000fa00930b0700c048a90010002000fa
:100680008b0b07000080fa004f03be004f02be0034
:100690004f01be004f00be003600f90000400600ca
:1006a0003600f800809fbe00829fbe00849fbe007f
:1006b000869fbe000000fa00c068a900200020004c
:1006c0007b0b07000080fa004f03be004f02be0004
:1006d0004f01be004f00be003600f900004006008a
:1006e0003600f800809fbe00829fbe00849fbe003f
:1006f000869fbe000000fa00c088a90030002000dc
:100700006b0b07000080fa004f03be004f02be00d3
:100710004f01be004f00be003600f9000040060049
:100720003600f800809fbe00829fbe00849fbe00fe
:10073000869fbe000000fa00c0a8a900400020006b
:100740005b0b07000080fa004f03be004f02be00a3
:100750004f01be004f00be003600f9000040060009
:100760003600f800809fbe00829fbe00849fbe00be
:10077000869fbe000000fa00c608a9007000200095
:100780004b0b07000080fa004f03be004f02be0073
:100790004f01be004f00be003600f90000400600c9
:1007a0003600f800809fbe00829fbe00849fbe007e
:1007b000869fbe000000fa00214680000002200053
:1007c000008060000000e00003003200c4a8a9001f
:1007d00090002000360b070020468000700060006b
:1007e0000000e00003003200c488a900a00020003f
:1007f0002f0b0700ffff37000040da000000fe006b
:100800000a00fa0011002000b1bf9f00c0bf9f0086
:100810006a805700cc0607004fb897000080fa00a6
:10082000000006000a00fa0051002000b1bf9f003e
:10083000c0bf9f006a805700c50607005fb89700d9
:100840000080fa0000000600889fbe008004780047
:10085000a08780000000e00004003a000e000700be
:100860000084eb000000e00008003500a88780004d
:100870000900e000050032000900440006000700fe
:100880000000e00001003d000084eb00080078005b
:100890004f04be0000000600800078000100e00068
:1008a00003003a0000002000a08788000000050037
:1008b0000080eb0002002000828f500002003e000a
:1008c000a18788000000eb00000006000800fa0085
:1008d000100798002107980032079800be0090008a
:1008e000010f7800070037002e00900010407800bc
:1008f000ae0090008100e80021079800c6090700bb
:100900001e0fe9001e0078000000e000f6ff3a002c
:100910003e0090000080fa00000006000000050084
:10092000889fbe00000478000100780082047800ef
:100930008801780009017800110020000e000700ee
:10094000890f5000010032000004eb00080078001d
:100950004f04be00000006000000fa00e8815700c6
:100960004fb997000105210000492000250207002a
:100970000080fa0000000600889fbe008a9fbe002b
:100980008c9fbe008e1f780000067800010478005e
:1009900002007800830478008881b900020778009b
:1009a0000e00e000420032000800e000410032008a
:1009b0008e057800c900900069009000808f50007b
:1009c0000400390009007800500007000000e00032
:1009d0002900350000402000190060000a003200a4
:1009e0000b017800a10020000c0078003600070001
:1009f000800678000d00e000060032006105160058
:100a00000a854600040037000b0578008006eb00dd
:100a1000010037000b05780049009000e9009000c4
:100a2000808050008a8f500002003100010578005c
:100a30008006eb000a0178008c0078002c0007008b
:100a40008a855500490090000a004000c0049800c3
:100a50000d00e0000400320009007800d600070015
:100a60000000e00004003a000b00e0000200320049
:100a70000a064600cfff3700008020001900600002
:100a80000200320009007800cb00070000c02000ff
:100a9000190060000200320049009000e004980054
:100aa0008b055700110009008885d8000100370028
:100ab0000000eb004f0778004f06be004f05be0058
:100ac0004f04be000000060003003700b0cf100046
:100ad000050032000201e900800178000200e00018
:100ae000faff3a000000050003007800000006004d
:100af0008001780002003700b15978000201e90056
:100b00000200e000fcff3a0000000600889fbe00e3
:100b10008a1f780000047800c800900068019000e7
:100b20000000eb00828f50003c0039001800780074
:100b30002200290002016000e20f5100070032008c
:100b4000012020000000e000010035000120240009
:100b5000008c70000080eb0030003700020026009f
:100b600002006000820f500009003a003800900037
:100b7000808f500006003900080078008e000700c2
:100b8000800078000080eb000100e00023003a00c4
:100b90001805780000c020000000650018003a0029
:100ba000a80490006002200008004000808f5400dc
:100bb00013003a00002020001e03070020049800c4
:100bc0000000e00005003a0029049800490498005c
:100bd0008904e80039049800080037000a60a00082
:100be0000a0c78004004980001202000808040001a
:100bf00031049800400c9800500c98000c0007003d
:100c0000280090005004980038009000600498007c
:100c100000002600180c70000000eb004f05780063
:100c20004f04be0000000600a06b20009e003700ad
:100c3000881f7800080f21001804e00003003a0024
:100c4000f9ff070020c0b300004c78004f04780083
:100c500000000600889fbe000004780008007800ad
:100c60005500070080047800000420001800600090
:100c70000200320028009000890207000000eb000b
:100c800020049800384090000004e0000500350082
:100c90000000fb00dafe07000000e0000100320067
:100ca0008084eb00181090000000e0000800320083
:100cb000dcfe07000000e000010032008084eb0051
:100cc00018109000760207000000eb001014980046
:100cd0000008200018006000150032000001eb0041
:100ce0006000b8000202d000030a210003024200a3
:100cf000940f140005003a00000040008180480075
:100d0000008041000008eb00060037006100400051
:100d1000e08048000201e800e80f5000e08f580032
:100d2000f0ff3a00080078005d0207000e0037006f
:100d3000000c780000c0eb003044980060022000f6
:100d400008004000200498004004980050049800d7
:100d5000400c980060049800500c980070049800b3
:100d600076004400000c9800090078004f04be0093
:100d700000000600881f78000004eb006140b80006
:100d8000e2ff2f00f3ff2f00dd050700e20a21003c
:100d900080004100110078000000e00001003200f6
:100da000acff07000804e800e80f5400f3ff3a0026
:100db0004f04780000000600889fbe000004780001
:100dc0000800e00010003a008004eb0009047800fd
:100dd0008800d000000a2100008040001000780048
:100de0000000e00004003200f3ff07000000e00014
:100df00001003d008084eb000804e800e80f540087
:100e0000f3ff3a00250037000000220018006000c0
:100e10008004eb0021003200a80490000f0037008e
:100e200009015100384090000000fb008900780063
:100e3000a6fe07000000e00007003c00280090002c
:100e40004004980060049800500c98001890a0008e
:100e50008084eb001100370080844400480190003a
:100e6000828f5400eeff3900280090004004980063
:100e70009800780002c020000281600001003a0062
:100e80003800900001e8a3000200320060049800de
:100e900001003700500c98008004eb000900780036
:100ea0004f04be0000000600010020000100e00029
:100eb00009003200010080000100e000060032005d
:100ec0008100e900010088008100d000020080005c
:100ed000828040008008780000000600889fbe00e5
:100ee000000478000203be00810478000802780044
:100ef00089017800120020000600be00a604070049
:100f0000890f5000010032000004eb000800780057
:100f10004f04be00000006006800fa00889fbe0073
:100f20008a9fbe0080047800010478008205780062
:100f3000030578008400780000f92f000f004000be
:100f400093040700d98f9f00fb8f9f000000eb00e8
:100f5000a09f9f00e88f9f009a84fb000904fb007c
:100f60008904ea00cf4cde0050022000800f5400bc
:100f70000d003200e18f54000b003a0009017800a7
:100f80008a0078007f889700df89970003000100be
:100f9000f08f9f000000e000950032002f9897002e
:100fa0000000e800a09f9f000905450050022000b6
:100fb000800f5400040032000800e000e6ff3a0011
:100fc0002f9897008b0037000000eb00809f9f0058
:100fd000f0979f00e0979f00d0979f00c0979f00d9
:100fe000b0979f0007003700610e210001005000fc
:100ff00000004000a10d2100808040004f98970024
:1010000011007000c09f9f000a0478000805780056
:10101000ba4478008900fb00600e21002f0207000f
:101020000000e000f0ff3a00a1c2b30081cf5400fd
:101030000e003a008f8897000180e900808f9f00a2
:1010400010007800b09f9f000000e00005003d0008
:101050000000ea00b09f9f004f9897000020a0007a
:10106000c09f9f000804e80010003700b09f9f0059
:10107000880078000000eb0005003700f3ff270030
:10108000830f500002003200ea00b9000000410066
:1010900001047800880078003101fb000203b100f0
:1010a000e90f5100f5ff3600b09f9f00e0c2b3008a
:1010b000984f1000020032000080eb00190037004a
:1010c000a0c2b300d84f100007003a008f889700e5
:1010d0000180e900808f9f0010007800909f9f00a2
:1010e0000804e800100037000000eb00909f9f000c
:1010f0008800780005003700f3ff2700830f5000b9
:1011000002003200ea00b90000004100010478004a
:10111000880078003101fb000203b100e90f5100a3
:10112000f5ff3600909f9f00984478008900fb00ef
:10113000200d2100e90107000000e000020032005c
:101140000804e800010037008044eb00a97f9f00fd
:1011500080c6b30080cf540006003a0098cf140038
:1011600010003a0066405000a07f9f000804e8008d
:101170000c003700c0c6b30080cf540009003a000d
:1011800098cf140007003a0067404000d84f100085
:1011900002003a006e4050000100370010c7b30053
:1011a000a07f9f001801fb00c3fb2f008f8141002f
:1011b00001f92f008f80400020f92f000f00400020
:1011c000150007000000e00009003a00c1fb2f00f5
:1011d0008f80400020f92f000f004000120307000d
:1011e0000000e000020035000805e8005aff370063
:1011f0000080eb004f05be004f04be000080fa00e7
:1012000000000600030278008201780001017800e6
:10121000e176200040ff3700889fbe008a9fbe0015
:10122000e4c6b300844f5100ce00320010003c00f1
:101230006b425200844f51001800320005003c0000
:1012400054c2b300844f51000601320084c5b3007c
:101250000f00370044c6b300844f51001500320020
:1012600065424200844f510001013a0011003700ed
:1012700004c7b300844f5100ed0032005f00350019
:1012800065424200844f51005c00320063424200dc
:10129000844f5100f6003a00580037001181e900f0
:1012a00082087800a008900081814100924978006e
:1012b000f5003700006a9000c5c6b300854f5200a4
:1012c00008003a0091027800648252008408780095
:1012d00094029000140278004fabde008603780081
:1012e0001600370015c7b300854f520003003a00bf
:1012f000110478006802540005003700a5c6b30049
:10130000854f520008003a0091047800688254002a
:10131000840878009402900024039000b4039000a5
:1013200014027800050037001182e9008408780073
:1013300014027800cfa2de00612bb9000498be0031
:101340000690be008068900088c6b30088cf500029
:101350000d00320028c6b30088cf500004003a00c8
:101360000402fb00cfa2de00612bb90008003700a9
:1013700048c7b30088cf50000300320066444400e1
:1013800088cf500004003a00cfa2de00612bb900e4
:101390000498be000690be001002780090029000f3
:1013a00020039000b0039000a0089000e00f5200ce
:1013b000e08f5a00e00f5b00e08f5b0003003d0010
:1013c00001824100d5c2b3000a00370030129000fc
:1013d0000418a3000300320001824100b5c2b3002b
:1013e000040037000408a3005900320001824100c4
:1013f00005c2b300054a780053003700006a900028
:10140000c5c6b300854f520009003a0011057800a7
:101410006402550084087800140478009404900055
:101420006055b8000802be000a03be00160037006f
:1014300015c7b300854f520003003a0091047800ad
:101440006882540005003700a5c6b300854f5200de
:1014500008003a00110578006802550084087800f9
:101460009402900024039000b403900014027800ca
:10147000050037001182e900840878001402780022
:101480008002eb006033b8000498be000690be00f6
:101490008068900088c6b30088cf50000d003200ed
:1014a00028c6b30088cf500004003a000482fb0035
:1014b0008002eb006033b8000800370048c7b30073
:1014c00088cf5000030032006644440088cf5000ab
:1014d00004003a008002eb006033b8000498be00bc
:1014e0000690be00b01090000138a3001800320032
:1014f000100278009002900020039000b00390004a
:10150000e00f5200e08f5a00e00f5b00e08f5b00bd
:101510000f00320081c7b300814f51000300320039
:1015200081c5b300814f510009003a00a008900026
:101530000182410005c3b300054a78008100e8003c
:1015400001824100024a78008100e80021089800e9
:10155000a0089000818141007300980082407800cb
:101560003e00370080699000c4c6b3001181e900d5
:1015700084cf5100220032000a003c006442520035
:1015800084cf51002500320004c2e80084cf51000e
:10159000130032006842520084cf51001e003a000e
:1015a0000a00370044c7b30084cf51001b0032004b
:1015b0006642420084cf5100180032006942520056
:1015c00084cf510014003a000500370082087800eb
:1015d0009200780020609000804878002c0037004e
:1015e000820878009200780010129000cfa2de00ee
:1015f000612bb9008498be008690be00240037009d
:10160000820878009200780010119000cf91de00df
:101610008288be001e0037001181e9008208780030
:1016200092007800101090008008780018003700b1
:101630001181e9008208780012027800cfa2de0052
:10164000612bb9000498be000690be00a00890006f
:10165000818141007300980081c7b300b500070085
:101660000b003700a0089000818141000500370081
:10167000a0089000818141000204e00001003a00ce
:1016800052c2b300824978008100e8002108980026
:101690000000eb004f05be004f04be000000060036
:1016a0000000e0002f003200c0017800e38f5100fd
:1016b0002c0036000308a3002a003a00718780003e
:1016c0000100e00002003200810f500004003100f0
:1016d000110098007087880016003700820078009b
:1016e000110190000200e00002003200800f510062
:1016f000faff39001102780084824000850f500003
:1017000018003900808f520003003a00830842001d
:1017100001007800070037000200e00003003200fb
:1017200083014000830f51000e0039001200980021
:1017300090009800900090000100e0000900320045
:1017400010014000828f500006003a00c20e2100b6
:101750000009eb0010017800110841009100900091
:101760001100980000000600889fbe000004780069
:10177000618780000100e000020032000100780073
:101780000d00370071878000e00e21000400370053
:10179000910f5400250036000180e8009100900070
:1017a0000100e000faff3a0010003700920f5400e9
:1017b0001e0036000280e800100178000200e00000
:1017c000faff3a001101780071878000e00e2100d5
:1017d00004003700910f5400140036000180e80027
:1017e00091009000828f5000faff3a0099878000a4
:1017f000888f5400010031008804780009007800c7
:10180000420007000000e00004003a00888f540006
:10181000050032008904d100f5ff3700091878006f
:101820009fff0700d2ff37000000eb004f04be000f
:1018300000000600881f7800630440000800a10033
:101840008000eb00800f540021003600e30f5400ad
:1018500001003e004800200008007800c2ff070099
:101860008000eb000000e0001900320090007800da
:101870009101780064815100880f5100030031000c
:10188000110190000208780007003700088140002d
:10189000020878009101900013019800100178006f
:1018a0001109140088087800100178000000eb008e
:1018b0000200e00004003200920190000300e0000a
:1018c000010032000280e800608788008180e80023
:1018d000010078004f047800000006000200370085
:1018e0000304e000060032000001780002007800e6
:1018f000b041780081cf5100f9ff3a000100370074
:101900000001eb0002007800000006008000780073
:101910000000eb000100e000050034000100780049
:10192000c9fb0700e10f400001003a000000eb0096
:1019300000000600fc874700889fbe008a9fbe000b
:101940008c9fbe008e1f78000006780080c5b30013
:1019500080cf50000a0032007740400080cf500016
:101960000a0032006940400080cf50000b00320076
:10197000100c210080bf9f00ae0020000a0037003d
:10198000020b210082bf9f0006003700130c2100cc
:1019900083bf9f008e00200003003700140c21003d
:1019a00084bf9f000e0120001c0278009c02900062
:1019b0002c039000bc0390000605be000404be008a
:1019c00040c6b30080cf50000300320065404000a5
:1019d00080cf50000b003a00e00f5200e08f5a0019
:1019e000e00f5b00e08f5b0006003d006000b80088
:1019f0006011b800040450008584580006055900a1
:101a000087855900e80f570004003200400020008d
:101a1000f00f57003c003a00010037003000200072
:101a2000e00f5400e08f5c00e00f5d00e08f5d0090
:101a300004003a008c1090008d0120000100e000ad
:101a4000070032008e00e900888060008fba97009e
:101a50008180420091407800f1ef9f007d012000dd
:101a6000800078008100e900050033008b05d1007b
:101a70000a85d3008984d3000884d300f9ff370096
:101a8000089ebe000a96be00130037008d06e900ce
:101a90008e00e900848060000fb99700810041004a
:101aa0001141780083fd2f008d81410082f779007c
:101ab000800178008301e900050033008783d100ad
:101ac0000683d3008582d3000482d300f9ff370058
:101ad000049ebe000696be001c0278009c02900088
:101ae0002c039000bc039000e00f5200e08f5a00de
:101af000e00f5b00e08f5b00930034000d00e0001e
:101b0000e2ff3c00900037000c68900081c6b300f3
:101b1000814f50000b00320006003c000004e00042
:101b200008003200e6c05000814f500052003a00d9
:101b300004003700c1c6b300814f50004e003a0088
:101b4000230037000800e00004003a000c10900069
:101b50008d0120000000e0000700320011000900a4
:101b60000e84d8000fba97000100420010407800a0
:101b7000f0ef9f007d012000110009000e84d800c5
:101b80000b003700110009000e04d8008d06e90093
:101b90008e81b900020454008fb897000884400079
:101ba0009841780082fd2f000d0141008377790074
:101bb000000478000800e000020032000d00e000a0
:101bc000f0ff3c00cfc4de00614db90027003700b4
:101bd000e00f5400e08f5c0004003a000c1090000d
:101be0008d0120000000e000080032006171b900a2
:101bf0000800be003f0207000fba970080004200b5
:101c000091407800f1ef9f007d0120006171b900e3
:101c10000800be00270207000c0037006171b90000
:101c20000800be00140207008d06e90080f1b9002b
:101c3000020454008fba970008844200984178004b
:101c400082fd2f000d014100837779000004be0062
:101c5000e00f5000e08f5800020032000d00e0005d
:101c6000eeff3c004fcdde008a057800089ebe00e6
:101c70000a96be0034003700e00f5400e08f5c008d
:101c8000e00f5d00e08f5d0004003a000c10900052
:101c90008d0120000000e0000a0032006172b900ee
:101ca000612bb9000800be000a01be00bc0207009b
:101cb0000fba97008000420091407800f1ef9f003a
:101cc0007d0120006172b900612bb9000800be00df
:101cd0000a01be00ab0207000e0037006172b900b6
:101ce000612bb9000800be000a01be00b002070067
:101cf0008d06e90080f2b900040454008fba970001
:101d0000088442009842780084fd2f000d024200b2
:101d100085777a00009ebe000296be001c04780003
:101d20009c0490002c059000bc059000e00f54002e
:101d3000e08f5c00e00f5d00e08f5d00020034008a
:101d40000d00e000e5ff3c00e80f570010003a00ee
:101d50003c1090000038a3000d003200f78f5600b1
:101d600006003e0080fd2f000d004000ef4078008f
:101d700000c3b30080cf50000500320002c3b3009f
:101d800071fd2f008d8040008d06e90082f77800fc
:101d900078811600420e98007c00900083fd2f0091
:101da0008f8141008d80410051fb07004c0890005d
:101db0008c109000810f500006003d000080500004
:101dc000300e98003c1090000040a10030169800a2
:101dd0000f0037000100e0000d003d00bc10900036
:101de000f4806000f08f500009003a002c11900040
:101df000ac089000810051003c09900082805000a6
:101e0000008050004240a90001003400300e9800cc
:101e10004f0778004f06be004f05be004f04be00be
:101e2000cf01b100000006000400fa00889fbe0048
:101e30008a9fbe008c1f780000047800010678009d
:101e4000a81490002808900080845400380890005e
:101e50008084540048089000808454005808900002
:101e600080845400680890008084540078089000b2
:101e7000808454000002220090bf9f0000032300d2
:101e8000a0bf9f00381090000028a30015003a0062
:101e90000900e00013003400090578008a05780085
:101ea000e20f5500010036002b002000c801900011
:101eb0000b017800ee8057006800900003000100dd
:101ec000600498000000e000aa00320018109000a2
:101ed0000b004000101498000b0555004240a9006b
:101ee000eeff3c00280990000200e0000c003400e6
:101ef000c80190008c007800680090000300010089
:101f0000600498008080eb000000e0009a0032003e
:101f1000981090002808900000804000101498004d
:101f2000380d90000a00e000110034008a057800a6
:101f3000e20f5500010036002b002000c801900080
:101f40000b017800ec80570068009000030001004e
:101f5000600498000000e000860032001810900035
:101f60000b004000101498000b055500edff3700e2
:101f700008699000c808900050c6b300804f510017
:101f800008003a000100e0001500340058029000fb
:101f90000809900098099000680090000400010072
:101fa000070037000100e0000d003400c801900078
:101fb00001017800f8009000680090000300010023
:101fc000600498008080eb000000e0006a003200ae
:101fd000981090004808900000804000101498006d
:101fe000580d90000a00e000110034008a057800c6
:101ff000e20f5500010036002b002000c8019000c0
:102000000b017800ec80570068009000030001008d
:10201000600498000000e0005600320018109000a4
:102020000b004000101498000b055500edff370021
:10203000086990006808900051c6b300814f5100b4
:102040000d003a000000e0001c0034007801900010
:10205000c8089000010141006111b800828fd200d0
:102060008381d200580290008000780068009000c0
:1020700004000100090037000000e0000f003400f8
:1020800078019000c808900081004100c8019000cc
:1020900000017800680090000300010060049800cf
:1020a0008080eb000000e0003300320098109000c8
:1020b000680890000080400010149800780d90008f
:1020c0000a00e000110034008a057800e20f550094
:1020d000010036002b002000c80190000b017800a1
:1020e000ec80570068009000030001006004980035
:1020f0000000e0001f003200181090000b004000ac
:10210000101498000b055500edff370038109000b3
:102110008000eb000028a300170032000900e00057
:102120001500340009057800e28f540001003600e4
:102130002a002000c80190000a017800ee805700b4
:102140006800900003000100600498000000e000b7
:1021500008003200181090000a0040001014980087
:102160008a8454004240a900eeff3c008000eb004e
:10217000010037008080eb00010078004f067800f6
:102180004f05be004f04be000080fa0000000600ac
:102190000108780000000600e6874700889fbe001f
:1021a0008a9fbe008c9fbe008e1f780082bf9f005a
:1021b000040478008299b900f2b79f000200e000a1
:1021c000590032000fb997000200e00057003200ba
:1021d0000006be007fb79700c8009000680090001e
:1021e000808f5000040039000800780047fa07008b
:1021f0000000e0003b0035000040200018006000b7
:102200000a0032008e017800a20020000c00be00ff
:102210007a0007000005be0000807500070032004c
:102220008c0455008904e800050037008e0478000e
:102230000a0020000b002000010037008e04780007
:10224000480190006800900002005000890f500083
:1022500003003100800478000a0020000b002000f9
:102260006111b800828fd2008381d2000902780008
:102270000c00be0038000700090757004800900016
:1022800009004000400498000a85750004003200ef
:1022900008007800c8fa07000000e00011003a00ca
:1022a0000e00e0000f0032006148b800808fd200bd
:1022b0008180d2000000780000f0a1000c01d00065
:1022c0008001d000030641004220a80081864e0014
:1022d0004200a9004220ae004200a8000c86d300b4
:1022e000bdff3700008020001800600002003200af
:1022f00008007800b0fa070000c020001800600055
:102300000200320048009000600498007fb19700fe
:102310000e0751000fb99700110009000287d8007d
:1023200080017800010037008001eb000300780095
:102330004f0778004f06be004f05be004f04be0099
:102340006f00b1000000060000c0da0000000600c7
:1023500000c0da00000006003400f8003200f80087
:102360000203be00820270008502720002f0a60025
:102370008301e800a301880000f0a6008100e800c6
:10238000910188001500b2000c003200104978005d
:102390000402e90015003200610141000200390029
:1023a0003420ec000200280061004000f7ff3900f3
:1023b0003220ec0000002800f4ff370010097800fc
:1023c0000482e90009003200620141000200390084
:1023d0003420ec000200280062004000f7ff3900c2
:1023e0003220ec0000002800f4ff37003200f90032
:1023f0003400f9000601be00000006000300e00002
:102400000900320095018000910188000000000061
:102410001042780095018800000000000402fb00d3
:10242000820f5200130032008301e9009501800001
:10243000910188000000000010427800950188009a
:10244000000000000404e0000800320000027800f0
:102450001000b00000026a004260af0000f0a0006f
:102460000482d2000180b000e4ff370000002000a9
:102470000100200000000600839f68000100e000ca
:1024800002003d0060001000e08018000300e00042
:1024900002003d0060011100e08119000500070005
:1024a0004f00e00002003b0060001000e0801800d8
:1024b000000006006022b800060220000000d000e4
:1024c0008180d2000482d2008582d2000000a00068
:1024d0000202520083825a000300310002024200cd
:1024e00083824a000000a1000603e900f3ff3a00de
:1024f00000000600efff07000400be000000060019
:10250000020ab900001bb9000200b80081004200b5
:102510008100430000000600889fbe008a9fbe0025
:1025200030044200b0844a0030054b0090854b00d7
:102530006000b1000898be000a90be000440e100af
:1025400005c8e10006d0e10007d8e1000200310033
:10255000680040001008e8004f05be004f04be00b0
:1025600000000600889fbe008a9fbe00100478000d
:102570009004900020059000b005900004185400cd
:1025800005985c0006185d0007985d0011002000aa
:102590000440e10005c8e10006d0e10007d8e100f1
:1025a000010039008000eb00108810004f05be00cc
:1025b0004f04be00000006001200fa00889fbe0013
:1025c0008a9fbe008c9fbe00e0b79f00f1b79f00be
:1025d00082bf9f0093bf9f000605be000404be009b
:1025e0000000eb00d0b79f00c0b79f00b0b79f00be
:1025f000a0b79f0090b79f00000678005fb19700da
:10260000cfb09700820141003fb097000200e00088
:1026100004003d00370007007e805700beff070022
:1026200003003700330007007e805700cdff07000e
:10263000dfb697000d00e0000c0035006fb2970088
:10264000ffb297000fbb97009fbb970010002000c0
:10265000010020006011b800000272008182720047
:1026600002037300838373001b0007000c06e8005d
:1026700001042000810f5600e0ff3a000d00e00049
:1026800004003d000802be000a03be007e80570021
:10269000a1ff07005fa897000000e00005003a00d6
:1026a0001fb29700afb297003fb39700cfb3970028
:1026b000090007006fb09700ffb097000fb99700af
:1026c0009fb997004f06be004f05be004f04be00e5
:1026d0000080fa000000060001000700000006006c
:1026e000a4b79f00b5b79f00c6b79f00d7b79f009c
:1026f000000006004f09de0082817100b3b79f0021
:102700004f01de008180400082807000a1b79f00f1
:102710008fb097004f09de000000400002007000fb
:1027200090b79f007fa897004f01de008180400096
:102730008280700081b79f000d0007004f3ade00d5
:102740000000400004007000f0af9f000800070088
:102750000402420085824a0006034b0087834b0037
:10276000dfff07000802be000a03be0000000600eb
:102770002fb29700bfb297004fb39700dfb3970017
:1027800000000600881f780018002000881f7800cd
:1027900089ff07008f87e9004f04780000000600da
:1027a000801feb0084ff07008f87e9000000060010
:1027b000889fbe008a9fbe00e00f5000e08f580047
:1027c000e00f5900e08f59000c003d006044b80054
:1027d0006055b8000000540081805c0002015d007b
:1027e00083815d00180020001500070008003d00ef
:1027f000180007000004eb00050037000004eb00a0
:102800000f00070002003d00120007001800200022
:10281000dcff07000800e000060032006022b8007c
:102820006033b8000000520081805a0002015b0052
:1028300083815b004f05be004f04be000000060010
:10284000e00f5200e08f5a00e00f5b00e08f5b006a
:10285000000006006044b8006055b800040254004f
:1028600085825c0006035d0087835d000000060032
:10287000889fbe008a9fbe008c1f7800e00f50002a
:10288000e08f5800e00f5900e08f59000d003d0027
:102890006044b8006055b8000000540081805c00be
:1028a00002015d0083815d001c0020000820e10022
:1028b00009a8e1000ab0e1000bb8e1000d003d00fd
:1028c000080037000006eb00e00f5200e08f5a00ce
:1028d000e00f5b00e08f5b0006003d006044b80045
:1028e0006055b8000402540085825c0006035d0058
:1028f00087835d00aaff07000c00e000060032009d
:102900006022b8006033b8000000520081805a0095
:1029100002015b0083815b004f0678004f05be001b
:082920004f04be000000060098
:020000040000fa
:10292800536500006e73000020560000616c0000c3
:102938003a200000256400000a0d00000000000095
:020000040000fa
:102948000000fa0000522000101288001000200039
:1029580020128800c0002800001288000080fa00b9
:10296800000006000400fa00000f78001107980024
:102978000000000000128000620060000000e0001b
:10298800fcff3a001e007800100078004012880012
:10299800000000000112800000022000008060009a
:1029a8000000e000fbff3a001e009000411280008a
:1029b800010878000080fa00000006001800fa00fc
:1029c800100f9800210f9800320f98000000eb00bc
:1029d800000f78000000eb00100798000000eb00e3
:1029e800700798000000eb00000f980020002000fe
:1029f800600798002e0890000000d100200f980072
:102a08001e0890000000e00005003a000000eb00fe
:102a1800500798007000470020079800040037000e
:102a2800ee009000510798009e089000210798003a
:102a38003e0890000000e00005003a000000eb00ae
:102a4800400798006e0047003007980005003700df
:102a5800ee00900041079800be08900031079800ea
:102a68000000000000128000620060000000e0002a
:102a7800fcff3a001b003700001280006200600073
:102a88000000e00008003a002e00900010007800d6
:102a980040128800ae0090005e0090000080400068
:102aa800200798001e0fe800011280000002200095
:102ab800008060000000e0000a003a003e0090003c
:102ac8004112800001087800be0090004e0090007e
:102ad80000804000300798001e0090000000e800c9
:102ae800100798002e0890009e007800808f5000f4
:102af800e1ff39000f0037000112800000022000ba
:102b0800008060000000e0000a003a003e009000eb
:102b18004112800001087800be0090004e0090002d
:102b280000804000300798001e0090000000e80078
:102b3800100798009e0090002e089000808f50008b
:102b4800edff39001e0078000080fa000000060042
:102b58000400fa00100798008e0078000e80e80044
:102b680080ff07001e0078000080fa0000000600c1
:102b78000600fa00000f7800110798002207980055
:102b8800ae0090001e007800010178009e009000c1
:102b98008aff07000080fa00000006000000fa0023
:102ba8001112800000402000008060000000e0005a
:102bb80002003a000000eb0001003700100020007e
:102bc8000080fa00000006000000fa0000128000f1
:102bd8000080fa00000006000000fa00003a8000b9
:102be8000080fa00000006000200fa00faff070061
:102bf800000f78001e007800240007000004e000a1
:102c08000200320000002800710007001e00780052
:102c18002a0007000004e00002003200000024003f
:102c28006b0007001e007800320007000004e00077
:102c38000200320000202000650007001e00780016
:102c48003a0007000004e0000200320000082000fb
:102c58005f0007001e007800420007000004e00043
:102c68000200320000042000590007001e0078000e
:102c78004a0007000004e0000200320000012000c2
:102c8800530007000080fa00000006000400fa0064
:102c9800100798000040eb00004f78001e009000dd
:102ca8000000e00002003d0010c0b300004f7800b3
:102cb8001e4078000080fa00000006000400fa00b8
:102cc800100798000040eb00004f78009e0090002d
:102cd80000002400008060000000e00002003200d4
:102ce80010c0b300004f78001e4078000080fa0042
:102cf800000006000400fa00100798000040eb00ee
:102d0800004f78009e0090000020200000806000a6
:102d18000000e0000200320010c0b300004f78004d
:102d28001e4078000080fa00000006000400fa0047
:102d3800100798000040eb00004f78009e009000bc
:102d480000082000008060000000e000020032005f
:102d580010c0b300004f78001e4078000080fa00d1
:102d6800000006000400fa00100798000040eb007d
:102d7800004f78009e009000000420000080600052
:102d88000000e0000200320010c0b300004f7800dd
:102d98001e4078000080fa00000006000400fa00d7
:102da800100798000040eb00004f78001e009000cc
:102db800700060000000e0000200320010c0b300a4
:102dc800004f78001e4078000080fa0000000600de
:102dd8000200fa00000f78009e80ea00003a8000a6
:102de80000806000003a88000080fa0000000600b9
:102df8000000fa004027ef000080fa0000000600fb
:020000040000fa
:102e0800201000000200000082000000ffff000008
:102e180000100000200000008000000022100000c8
:102e28000200000082000000008000002410000062
:102e380002000000800000002610000002000000d0
:102e480080000000281000008800000082000000b8
:102e580001000000004e10004f104e00104e1000f0
:102e68004e104e00103e1000000000000000000050
:102e7800000000000000000000000000000000004a
:102e88000000000000020800010176001077100021
:102e9800761076001076100076106600100000009c
:102ea800000000000000000000000000000000001a
:102eb80000000000000000000000020008020200fc
:102ec8009e109f00109e10009e109e00109e1000e5
:102ed8008e1000000000000000000000000000004c
:102ee80000000000000000000000000000000000da
:102ef80028105000107810000000000000000000aa
:102f08000000000000000000f010000002000000b7
:102f180080000000d21000001a00000082000000ab
:102f2800686a6c00747a4c0000000100000200001e
:102f38000400080000100000000020002b2d2300d2
:102f480030000000f21000000200000082000000c3
:102f580004000000ec1000000400000080000000e5
:102f6800b010000022000000820000003031320062
:102f78003334350036373800394142004344450080
:102f880046003000313233003435360037383900e6
:102f9800616263006465660000000000f4100000d0
:0c2fa8000200000080000000000000009b
:020000040000fa
:102fb4000000fa0080002000001188002222ef00a7
:102fc400802020004011880021e2a8002342a800ac
:102fd4000080fa00000006000000fa000000000073
:102fe40010118000610060000000e000fcff32006e
:102ff40010118000620060000000e0000100320057
:103004002222a90030118000004078000080fa00dc
:10301400000006000200fa00004f780000000000e3
:103024001111800000202000008060000000e000fa
:10303400fbff3a001e80fb00201188000080fa008c
:10304400000006000000fa00101180000040780023
:10305400614060000080fb0000f0a7000000ea006f
:103064000000ea004f00de00004078000080fa0013
:10307400000006000000fa0011118000002020006a
:10308400008060000000e00007003a001111800099
:1030940000402000008060000000e00002003200d8
:1030a40010002000010037000000eb000040780011
:1030b4000080fa00000006000000fa0010118000f1
:1030c4004800de00614060000080fb0000f0a700c3
:1030d4000000ea000000ea004f00de000040780033
:1030e4000080fa00000006000000fa0010118000c1
:1030f4000080fa00000006000000fa0021e2a800a7
:103104002342a8000080fa00000006000000fa0034
:1031140021e2a9002342a9000080fa000000060071
:103124000000fa00c70007002083a90001198000ed
:10313400000e20000100700000198800100020001b
:10314400208188001600070020818000801f7800fd
:1031540040492900801f7800fef50700e4875700e6
:1031640000fa200001002000c20007002081800036
:103174001700070000902000d1032000bd000700c5
:1031840014cea9001081800072fe070014cea8009e
:1031940000902000d1032000b6000700e9ff3700ab
:1031a4000000fa002003a9002023a800000000006a
:1031b40000198000610060000000e000fcff3200a4
:1031c40000188000208188000080fa0000000600ba
:1031d4000200fa00000f7800908120009e00780021
:1031e400808f500004003600108180007900400078
:1031f4001081880007003700607e20009e00780060
:10320400808f500003003e00108180007900500040
:10321400108188000080fa00000006000000fa0017
:10322400042eef0000042000a0708800700120002c
:1032340000708800f0a32f00807088000c2eef002f
:103244001c2eef000a2eef001a2eef00062eef00c0
:10325400162eef003001200070708800c00020009e
:10326400f0708800113a8000f00b200000816000ab
:103274006004200071052000237420008049780038
:1032840081497800824978004134800000fc2f0095
:10329400008060000000a00040348800103a8000e4
:1032a400000178000260a000600420007105200085
:1032b400237420008049780081497800824978008d
:1032c4000080fa00000006000000fa0040402800d8
:1032d4000019880080402000101988000020200078
:1032e400201988002823ef0000002c0070198800a2
:1032f40010002000801988003223ef002623ef00fd
:10330400a0982100050007000080fa0000000600d4
:103314000000fa000080fa00000006000200fa0033
:10332400000f78001e007800308188000080fa00c9
:10333400000006000000fa000140800000002200a6
:10334400008060000000e000060032003081800050
:103354000000e00002003200308180000000010023
:1033640001a8a9000080fa00000006000000fa008d
:1033740000102300203a88004827ef004e27ef0072
:1033840060022000303a88006027ef006227ef00d7
:103394006427ef006627ef006c27ef00320020005f
:1033a40080072000a10920003374200080497800a0
:1033b40081497800824978001200200060042000ce
:1033c4007105200023742000804978008149780029
:1033d4008249780000000000103a8000610060001b
:1033e4000000e000fcff3a0000000000113a8000f9
:1033f40000022000008060000000e000fbff3200bb
:103404000080fa00000006000200fa00000f7800b5
:1034140021028000200f2000008060001e00700048
:10342400200288000080fa00000006000000fa0074
:10343400c3e8a80000000000000000000080fa00bb
:10344400000006000000fa0074ff0700c7ff070031
:10345400220007003bfd0700d5fe07009aff070086
:10346400f2ff070000022000e7ff07000080fa00d7
:04347400000006004e
:020000040000fa
:10347800f03fb1000180b10006003500ee030900fd
:1034880000000000403fb1000180b100fbff3d009b
:103498001000b000203fb000020035000080090095
:0834a800000000000000060016
:020000040000fa
:1034b0000200fa00000f78009e0078000181880069
:1034c000ffff37000000fa000000210080077800ad
:1034d00080012100000188000080fa000000060041
:0c34e0000000fa000080fa000000060066
:020000040000fa
:04afe000cdff0000a1
:020000040000fa
:04afe400cfff00009b
:020000040000fa
:04afe8007fff0000e7
:020000040000fa
:04afec0079ff0000e9
:020000040000fa
:04aff00078ff0000e6
:020000040000fa
:04aff400ffff00005b
:00000001FF
